:020000040800F2
:10000000301D00202102000827250008991F000844
:1000100025250008610600084328000800000000AC
:10002000000000000000000000000000890100083E
:100030005109000800000000CD0100081526000845
:100040003B0200083B0200083B0200083B0200089C
:100050003B0200083B0200083B0200083B0200088C
:100060003B0200083B0200083B0200083B0200087C
:100070003B0200083B0200083B0200083B0200086C
:100080003B0200083B0200083B0200083B0200085C
:100090003B0200083B0200083B0200083B0200084C
:1000A0003B0200083B0200083B0200083B0200083C
:1000B000A12600083B020008AD2600083B0200080C
:1000C0003B0200083B0200083B0200083B0200081C
:1000D0003B0200083B0200083B0200083B0200080C
:1000E0003B0200083B0200083B02000800F002F857
:1000F00000F03AF80AA090E8000C82448344AAF188
:100100000107DA4501D100F02FF8AFF2090EBAE885
:100110000F0013F0010F18BFFB1A43F0010318473B
:100120007849000098490000103A24BF78C878C187
:10013000FAD8520724BF30C830C144BF04680C60ED
:10014000704700000023002400250026103A28BF35
:1001500078C1FBD8520728BF30C148BF0B60704739
:100160001FB51FBD10B510BD00F01BF91146FFF7FC
:10017000F7FF02F07DFB00F039F903B4FFF7F2FF5F
:1001800003BC00F041F90000224B19680868B0E890
:10019000F00F80F30988BFF36F8F4FF0000080F3FA
:1001A00011884EF00D0E70470000000006480068F0
:1001B000006880F3088862B661B6BFF34F8FBFF363
:1001C0006F8F00DF00BF00BF08ED00E0EFF3098094
:1001D000BFF36F8F0F4B1A6820E9F00F106008B55E
:1001E0004FF0500080F31188BFF34F8FBFF36F8F34
:1001F00003F0E2FA4FF0000080F31188BDE80840F8
:1002000019680868B0E8F00F80F30988BFF36F8FB2
:10021000704700BF20000020EFF30580704700000A
:100220000948804709480047FEE7FEE7FEE7FEE78A
:10023000FEE7FEE7FEE7FEE7FEE7FEE704480549C6
:10024000054A064B704700009F260008ED00000895
:1002500030170020301D00203019002030190020F8
:10026000032A40F2308010F0030C00F0158011F8E2
:10027000013BBCF1020F624498BF11F801CB00F8BA
:10028000013B38BF11F8013BA2F1040298BF00F80E
:1002900001CB38BF00F8013B11F0030300F02580CB
:1002A000083AC0F0088051F8043B083A51F804CBF2
:1002B000A0E80810F5E7121D5CBF51F8043B40F8B8
:1002C000043BAFF30080D20724BF11F8013B11F8C3
:1002D00001CB48BF11F8012B24BF00F8013B00F807
:1002E00001CB48BF00F8012B704710B5203AC0F091
:1002F0000B80B1E81850203AA0E81850B1E8185027
:10030000A0E81850BFF4F5AF5FEA027C24BFB1E863
:100310001850A0E8185044BF18C918C0BDE81040D4
:100320005FEA827C24BF51F8043B40F8043B08BFDD
:100330007047D20728BF31F8023B48BF11F8012BA4
:1003400028BF20F8023B48BF00F8012B70474FF050
:10035000000200B5134694469646203922BFA0E815
:100360000C50A0E80C50B1F12001BFF4F7AF090721
:1003700028BFA0E80C5048BF0CC05DF804EB890012
:1003800028BF40F8042B08BF704748BF20F8022B55
:1003900011F0804F18BF00F8012B7047704770476D
:1003A0007047754600F02CF8AE4605006946534686
:1003B00020F00700854618B020B5FFF73FFFBDE8E5
:1003C00020404FF000064FF000074FF000084FF0BC
:1003D000000B21F00701AC46ACE8C009ACE8C0094D
:1003E000ACE8C009ACE8C0098D46704710B50446BA
:1003F000AFF300802046BDE81040FFF7BEBE00000E
:1004000000487047D016002001491820ABBEFEE717
:10041000260002007047000030B5224AA1F57A613B
:1004200001FB01F4B2F90E3024136343DD12B2F97B
:1004300002304B4305EBE323B2F9005003EB850395
:10044000022505EB4303B2F90450A0EBA3004D4392
:100450006913B2F90C50D288654301EB2541891C20
:10046000891001F500414A43D10B46F2A8125043CE
:10047000B0F1004F03D24000B0FBF1F002E0B0FB5E
:10048000F1F040000112494340F6DE325143064A82
:100490000914424301EB224101F6CF6100EB211028
:1004A00030BD0000B816002043E3FFFF7FB5050014
:1004B00007D01C480078F0B102A800F09FF8D0B92E
:1004C00002E0032004B070BD174802994289891ADE
:1004D00002895143B0F91220B0F91400C913D202B5
:1004E000084492FBF0F00C1804F10800061168466D
:1004F00000F048F808B10120E4E721460098FFF732
:100500008BFF0446304604F089F9084904F0C4F82A
:100510002860204604F082F9054904F0BDF86860BF
:100520000020CFE79C000020B816002000002041EA
:100530000000C8427FB5114C00200125207003A99E
:10054000CDE90015642002902B46D022EE210C4804
:1005500000F0D2FB032803D020B1012004B070BD0D
:100560000220FBE79DF80C00552801D00420F5E798
:1005700001F0DAFF0028F1D12570EFE79C000020A0
:10058000BC00002030B585B0044674208DF8100002
:100590000121642204A88DE807000B461A25F422E5
:1005A000EE21154800F0D6FC032814D080B9284667
:1005B00000F0D0F90222032103A88DE807000123EF
:1005C000F622EE210C4800F097FB032803D020B15F
:1005D000012005B030BD0220FBE79DF80C009DF81E
:1005E0000D10000440EA01209DF80E100843C009D8
:1005F00020600020EDE70000BC00002010B586B0B0
:1006000004462E208DF810000121642204A88DE8F4
:1006100007000B46F422EE21104800F09BFC032853
:1006200014D080B9052000F095F9022003A9CDE986
:10063000001002900123F622EE21084800F05CFB36
:10064000032803D020B1012006B010BD0220FBE733
:10065000BDF80C0040BA20600020F5E7BC00002087
:10066000FEE700002DE9F047040010D00020DFF87D
:100670008C9020606060D9F8080058B15FF00005E8
:1006800000F044F90646022806D06EB131E005209C
:10069000BDE8F0870420FBE7642002F043F96D1CFD
:1006A000EDB2032DECD324E0144D1435687804F03A
:1006B000CDF8DFF84CA0514603F0EEFF074628784E
:1006C00004F0C4F8394603F085FF80462060E878DE
:1006D00004F0BCF8514603F0DFFF0746A87804F0A9
:1006E000B5F8394603F076FF6060C9F81080C9F8A4
:1006F0000C0000F02DF83046CAE70000A0000020F2
:10070000000020411CB500200090019001216846A6
:1007100002F01CF90B49886068B1002102F066F90B
:1007200000F046F801220221074800F015FA0748B8
:1007300001F038F908B105201CBD00F009F80020CF
:100740001CBD0000A000002000080140680100203E
:1007500010B504210C4801F01BFB0C490020087067
:10076000487088708880094A014614325054491CE8
:10077000C9B20529FAD300F01BF80122BDE81040E8
:100780000221034800F0E8B968010020A000002021
:100790000008014005490A68136A23F0A0031362A8
:1007A00009680A6A42EA001008627047680100207E
:1007B0001FB50020029002200121CDE90001039025
:1007C0006946024800F0D8F81FBD0000000801404B
:1007D0007FB5FFF7BDFFFFF7EBFF164E00220221AA
:1007E000304600F0B9F9142002F09CF801220221F1
:1007F000304600F0B1F9022100250124CDE90015B1
:10080000CDE902416946304600F0B6F80220FFF714
:10081000C1FF094800684562084D2C700421064854
:1008200001F044FA20B107202870002004B070BD08
:100830000120FBE70008014068010020A000002023
:1008400010B51249A1F1140462788A5C62F35F006A
:1008500062788854A078401CA070A078082804D141
:100860000020A0706078401C6070607805280CD172
:10087000062020700421064801F08AFAA0680028AA
:1008800003D0BDE8104002F089B810BDB4000020CC
:100890006801002070B50168B1F1804F1ED1017F61
:1008A00002291BD1042101F061FB174C80B2217891
:1008B0000425062912D2DFE801F01103080D1219F0
:1008C0000020FFF767FF02200EE00220FFF762FF23
:1008D000032009E00020FFF75DFF257070BDA080B8
:1008E0000220FFF757FF0520207070BDA188401A35
:1008F00080B2322801D9012000E00020FFF7A0FFDC
:1009000020780628E6D170BDA000002010B5FFF7C2
:100910005FFF40B10D484FF4FA71806802F066F84D
:1009200018B1012010BD032010BD08481430017813
:10093000427811448278C37800791A441144C9B2CC
:10094000884201D1002010BD022010BDA00000206F
:100950007047000070B5044600F004F90546601CBD
:1009600002D004480078044400F0FCF8401BA04288
:10097000FAD370BD100000202DE9F84FDFF8B891D0
:100980000024A9F1040B23460F2709F1040AABF157
:10099000040EC9E00125A5402A40AA427DD1674E38
:1009A000D1F804C0ACEB0608B44532D014DCBCF17D
:1009B000030F3AD009DCBCF1000F2AD0BCF1010FC3
:1009C0001CD0BCF1020F31D11DE0BCF1110F17D0CA
:1009D000BCF1120F2AD119E0B8F5881F19D006DC36
:1009E000B8F5803F15D0B8F5801F1FD111E0B8F5DC
:1009F000001F0ED0B8F5041F18D10AE0CB6815E02F
:100A0000CB681B1D12E0CB6808330FE0CB680C33BA
:100A10000CE08B682BB1012B4FF0080303D045612C
:100A200004E0042302E0056100E00023FF2A01D86E
:100A3000064601E000F104064FEA840501D9A5F15C
:100A40002005D6F8008007FA05FC28EA0C0803FA0E
:100A500005F548EA0508C6F800804D68ED0062D546
:100A6000374DAE6946F00106AE61AD6924F003066C
:100A700005F001050095334D06EB050CDCF8085038
:100A8000A607360F07FA06F825EA0805DFF8B8804A
:100A9000404503D14FF0000817E044E0DFF8AC8098
:100AA000404502D14FF001080FE0DFF8A480404537
:100AB00002D14FF0020808E0DFF89880404502D1EB
:100AC0004FF0030801E04FF0040808FA06F848EA7E
:100AD0000508CCF808804D68D9F80060ED024D4655
:100AE00001D5164300E096432E604D68DAF80060A9
:100AF000AD02554601D5164300E096432E604D6881
:100B0000DBF80060AD035D4601D5164300E0964377
:100B10002E604D68DEF80060ED03754601D5164382
:100B200000E096432E60641C0D682A46E5407FF481
:100B300031AFBDE8F88F000008040140000011103B
:100B4000001002400000014000080140000C01407C
:100B500000100140001401400AB10161704709040E
:100B6000FBE700000148806870470000100000208B
:100B700070B5040025D094F83D00002520B984F814
:100B80003C50204600F07EFA242084F83D00206886
:100B9000016821F0010101602068016841F4004111
:100BA00001602068016821F40041016000F018FC38
:100BB0004D4A6168914201D84C4900E04C49884255
:100BC00001D2012070BD4B492368B0FBF1F15E6892
:100BD00026F03F060E435E606368934206D94FF4E9
:100BE000967359434FF47A73B1FBF3F12368491CB0
:100BF0001E6A26F03F06314319626168914210D89F
:100C00004900401EB0FBF1F2521CC2F30B02042A51
:100C100001D2042022E0B0FBF1F0401CC0F30B0035
:100C20001CE0A268F2B301EBC10303EB0116431E03
:100C3000B3FBF6F35B1C43F480431B0549D092B32E
:100C400001EBC10202EB0111401EB0FBF1F0401CB0
:100C5000C0F30B0040F4804040F400402168CA69B2
:100C60004CF6FF739A431043C861D4E9071001435F
:100C70002068026822F0C00211430160D4E9030138
:100C800001432068826848F2FF339A431143816030
:100C9000D4E9050108432168CA6822F0FF02104325
:100CA000C86001E00EE016E02068016841F0010133
:100CB00001602564202084F83D00256384F83E50BF
:100CC000002070BD01EB4106431EB3FBF6F35B1C35
:100CD000B3E70120C2E701EB4101401EB0FBF1F098
:100CE000401CC0F30B00B7E7A086010080841E0003
:100CF00000093D0040420F002DE9FF4F83B0002561
:100D0000DDE910799A4693460446DDF8488000955F
:100D1000FFF728FF064694F83D0020287CD11923D0
:100D2000012288492046009601F04CFA0028F5D1AE
:100D300094F83C0001286FD0012084F83C00206822
:100D40000168C90703D1016841F001010160206811
:100D5000016821F400610160222084F83D004020F8
:100D600084F83E0025646762A4F82A90608D20858F
:100D70007548E062CDE9008653465A4620460499FC
:100D800001F022F900287CD1208DDFF8C0912027C6
:100D900068B1012814D00228206801681ED041F4EF
:100DA000806101602068416980690090BCE0206832
:100DB000416981690091016841F400710160B3E00B
:100DC0002068016821F48061016072B62068416981
:100DD00081690091016841F400710AE041F4006109
:100DE000016072B62068416981690091016821F44F
:100DF0008061016062B697E0032865D801280CD0B5
:100E0000022843464FF000024946204600960BD088
:100E100001F0D8F9A8BB0CE091E0324641462046EB
:100E200001F076FA68BB72E001F0CCF948BB72B60B
:100E300033E02068016821F48061016072B62068A7
:100E40000069616A0870606A401C6062208D401E03
:100E50002085608D401E60853D4846F2A8110068DF
:100E6000B0FBF1F0C0EBC00000EB80000090401E32
:100E7000009007D020684069C04340070DD5009816
:100E8000F5E727E044F8305F6773A573206940F009
:100E90002000206162B625731CE02068016841F4DF
:100EA0000071016020680069616A0870606A401C16
:100EB0006062218D491E2185618D491E618562B662
:100EC00021680969017026E032464146204601F05A
:100ED0001FFA18B1012007B0BDE8F08F2068006943
:100EE000616A0870606A401C6062208D401E81B299
:100EF0002185608D401E608520684269D24352077B
:100F000012D4032903D1016821F4806101602068B3
:100F10000069616A0870606A401C6062208D401E32
:100F20002085608D401E6085208D00287FF464AF91
:100F300084F83D7084F83E5084F83C50CBE70220A2
:100F4000C9E70000020010000000FFFF04000100DC
:100F50001C0000202DE9FF4F83B09A46DDE9119770
:100F600093460446DDF84080FFF7FCFD054694F803
:100F70003D0020287FD119230122404920460095B9
:100F800001F020F9002876D194F83C00012872D0B5
:100F9000012084F83C0020680168C90703D101687A
:100FA00041F0010101602068016821F400610160E5
:100FB000212084F83D00402084F83E00002626646D
:100FC000C4F82480A4F82A90608D20852C48E06223
:100FD000CDE9007553465A462046049901F072F84F
:100FE00070B930E02A463946204601F0C9F958B1B7
:100FF000206C042804D12068016841F4007101606C
:10100000012007B0BDE8F08F606A216800780861B0
:10101000606A401C6062218D491E89B22185628D03
:10102000521E628522685369DB435B070BD469B1AA
:1010300000781061606A401C6062208D401E20852F
:10104000608D401E6085208D0028CBD12A46394610
:10105000204601F08BF80028CAD154F83D0B0168F6
:1010600041F400710160202004F81E09E6776677DC
:101070000020C6E7FFE70220C3E7000002001000DF
:101080000000FFFF10B586B0002100910191029190
:10109000039100680F4988421AD10F4CA06940F0B3
:1010A0000800A061A069694600F008000490C02013
:1010B000009012200190032003900848FFF75CFC89
:1010C000E06940F40010E061E06900F40010049071
:1010D00006B010BD0054004000100240000C01405A
:1010E0000248816802781144816070471000002036
:1010F000074810B5016841F010010160032000F0BD
:10110000A7F80F2000F006F800F050F8002010BDFE
:101110000020024030B505461F4887B0C16941F044
:101120000401C161C06906A900F00400009001A893
:1011300000F036F90498B0B100F052F940001749B8
:10114000174AB0FBF1F11748491E0260416040F2B6
:10115000E7320021C0E903218160816100F0C4FB16
:10116000040003D015E000F03BF9E8E70D4800F07B
:1011700041FC04000DD11E2000F03CF8102D07D2D8
:10118000002229461E2000F043F80748056000E0D1
:10119000012407B0204630BD0010024040420F003D
:1011A0000008004058080020140000200F4808B52F
:1011B000816941F001018161816901F001010091C2
:1011C000C16941F08051C161C069002200F08050C6
:1011D00000900F21901E00F01BF80548416821F097
:1011E000E06141F00071416008BD00000010024064
:1011F00000000140002809DB00F01F02012191409E
:101200004009800000F1E020C0F8001170470000A4
:10121000F0B40E4B1B680C46C3F30223C3F1070561
:10122000042D00D90425191D072901D2002300E04F
:10123000DB1E012606FA05F1491E214099409E4019
:10124000761E16403143F0BC01F0FCBA0CED00E014
:10125000064900F0070208684FF6FF03184040EA0D
:101260000220034A10430860704700000CED00E0C4
:101270000000FA052DE9F0470F46050061D0434E06
:10128000306800F00700B84209D2306820F007004B
:1012900038433060306800F00700B84251D1286808
:1012A0003B4C810712D5400703D5606840F4E060ED
:1012B00060602878000703D5606840F46050606083
:1012C0006068A96820F0F000084360602878C007D3
:1012D00028D06868012810D02168022810D089071A
:1012E00000292EDA616821F0030101436160FFF7F4
:1012F00039FC804641F288390DE021688903EFE727
:101300008901EDE7FFF72EFCA0EB0801494502D962
:101310000320BDE8F0876068696800F00C00B0EB5E
:10132000810FEFD1306800F00700B8420BD9306868
:1013300020F0070038433060306800F00700B84202
:1013400001D00120E5E72878400705D56068E96805
:1013500020F4E060084360602878000706D56068E4
:10136000296920F4605040EAC100606000F048F84C
:101370006168084AC1F30311515CC840064908601E
:1013800006480068FFF7C6FE0020C2E700200240C2
:10139000001002405A4A00081C00002014000020DF
:1013A0000F2202600C4A536803F003034360536842
:1013B00003F0F0038360536803F4E063C360526892
:1013C0004FF4E06303EAD20202610448006800F0CF
:1013D0000700086070470000001002400020024033
:1013E0000448054900684968044AC1F30221515C78
:1013F000C84070471C000020001002406A4A0008E4
:101400000E4A51680E4801F00C03042B11D0082B32
:101410000FD10C48C1F38343C903C05C0AD551689E
:10142000084AC1F34041921E515C054A5043B0FB4B
:10143000F1F0704704494843704700000010024033
:1014400000127A004A4A000800093D002DE9F84FD1
:10145000040070D02078C04DC00749D06868C0F340
:101460008100012807D06868C0F38100022809D1F3
:101470006868C00306D52868800339D560680028ED
:10148000E7D035E06068B0F5803F0BD010B1B0F523
:10149000A02F11D0286820F480302860286820F41C
:1014A000802002E0286840F480302860606890B1B5
:1014B000FFF758FB06460AE0286840F480202860C1
:1014C000F0E700BFFFF74EFB801B642873D8286845
:1014D0008003F7D50CE0FFF745FB064605E000BFAB
:1014E000FFF740FB801B6428F0D828688003F7D4FE
:1014F00020789A4E80074FF001094FF0000839D547
:10150000686810F00C0F07D06868C0F381000228EB
:1015100009D16868C00306D42868800714D52069FB
:10152000012808D110E02069B0B1C6F80090FFF79B
:1015300019FB074605E00AE1FFF714FBC01B022870
:10154000C4D828688007F7D52868616920F0F800BA
:1015500040EAC10028600DE0C6F80080FFF702FBFA
:10156000074604E0FFF7FEFAC01B022823D82868CC
:101570008007F7D4207800072CD57948A169D9B124
:10158000C0F80090FFF7EEFA074604E0FFF7EAFA2A
:10159000C01B02280FD8686A8007F7D571484FF43E
:1015A000FA510068B0FBF1F0009000BF0098411EB6
:1015B0000091FAD20EE080E0C0F80080FFF7D2FA86
:1015C000074604E0FFF7CEFAC01B022875D8686A08
:1015D0008007F7D42078400760D5E8690027C0006D
:1015E00008D4E86940F08050E861E869012700F01C
:1015F000805000905C480168C90513D40168834697
:1016000041F480710160FFF7ADFA824606E000BF49
:10161000FFF7A8FAA0EB0A0064284ED8DBF8000018
:10162000C005F5D5E06801280AD008B1052813D017
:10163000286A20F001002862286A20F0040002E0F5
:10164000286A40F001002862E06841F2883B98B1C6
:10165000FFF788FA82460BE0286A40F0040028620F
:10166000EEE700BFFFF77EFAA0EB0A0159455AD812
:10167000286A8007F6D50CE0FFF774FA824605E089
:10168000FFF770FAA0EB0A0159454CD8286A800789
:10169000F6D41FB1E86920F08050E861E06988B3B2
:1016A0006968C1F38101022944D00228C6F860802C
:1016B00004D0FFF757FA044638E034E0FFF752FA57
:1016C000074604E0FFF74EFAC01B02282BD8286813
:1016D0008001F7D4206AB0F5803F05D16868A16821
:1016E00020F4003008436860D4E9080108436968C1
:1016F00021F4741108436860C6F86090FFF732FA6D
:10170000044606E025E000BFFFF72CFA001B022884
:1017100009D828688001F7D51BE000BFFFF722FA3F
:10172000001B022802D90320BDE8F88F2868800139
:10173000F4D40EE00128F7D06868226A00F4803102
:10174000914204D1616A00F47010884201D00120F6
:10175000EAE70020E8E700000010024000004242F3
:10176000800442421C0000200070004070B504005C
:1017700009D0606A002540B125616561A56294F8D1
:10178000510040B10CE0012070BD6068B0F5827F6F
:10179000F4D0E561F2E784F85050204600F040F8BC
:1017A000022084F851002068016821F040010160A6
:1017B000A088218900F4827001F404410843A189C2
:1017C00001F400610843217C01F002010843217DFE
:1017D00001F001010843218B01F400710843217FCE
:1017E00001F03801084394F8201001F0800108430B
:1017F000218D01F40051084321680860A06904218B
:1018000001EA1040216848602068C16921F4006144
:10181000C1616565012084F85100002070BD0000A1
:1018200000B585B0002100910191029103910068FB
:101830000F4988421AD10F48816941F48051816172
:10184000816901F480510491816941F00401816151
:101850008069694600F004000490A02000900220F6
:101860000190032003900448FFF786F805B000BDFF
:1018700000300140001002400008014070477047EE
:1018800070B590F83C20012A26D0012480F83C4015
:10189000022280F83D2003685A689D6822F0700695
:1018A0000A6832435A600D4B02689A4208D0B2F17E
:1018B000804F05D00A4B9A4202D00A4B9A4204D17B
:1018C000496825F080031943916080F83D4000216C
:1018D00080F83C10084670BD022070BD002C01400D
:1018E000000400400008004010B5040003D094F844
:1018F0003D0010B107E0012010BD002084F83C003D
:10190000204600F01FF8022084F83D00211D2068C9
:1019100000F0D2FE012084F8460084F83E0084F8EE
:101920003F0084F8400084F8410084F8420084F8C5
:10193000430084F8440084F8450084F83D0000200A
:1019400010BD000000B585B0002100910191029109
:1019500003910068B0F1804F1ED11048C16941F079
:101960000101C161C16901F001010491816941F086
:10197000040181618069694600F00400049002203E
:1019800000900748FEF7F8FF002205211C20FFF712
:101990003FFC1C20FFF72EFC05B000BD00100240EC
:1019A0000008014090F83D10012901D00120704746
:1019B000022180F83D1000680B49884208D0B0F140
:1019C000804F05D00949884202D00949884204D194
:1019D000816801F00701062903D0016841F0010187
:1019E0000160002070470000002C0140000400400E
:1019F0000008004090F83D10012901D001207047F7
:101A0000022180F83D100168CA6842F00102CA60F4
:101A100000680B49884208D0B0F1804F05D00949D1
:101A2000884202D00849884204D1816801F0070148
:101A3000062903D0016841F00101016000207047D0
:101A4000002C0140000400400008004070B504462E
:101A500090F83C000025012817D0012684F83C604E
:101A6000022084F83D002068826822F0770222F488
:101A70007F4282600868502838D00DDC20284FD083
:101A800005DC90B3102811D14AE0022070BD302847
:101A900046D040280AD13BE060282FD070280DD0D6
:101AA000B0F5805F03D0B0F5005F12D0012584F857
:101AB0003D60002084F83C00284670BDCB68D1E929
:101AC0000121206800F041FE2068816841F0770123
:101AD00009E0CB68D1E90121206800F036FE2068DA
:101AE000816841F480418160E1E719E0CA68496892
:101AF000206800F03CFE5021206806E0CA68496872
:101B0000206800F071FE6021206800F028FECEE71A
:101B1000CA684968206800F02AFE40212068F4E77E
:101B2000226801461046F0E7FEF7B4BE2DE9F04109
:101B3000054690F83C0000260C46012810D00120F4
:101B400085F83C0072B1042A1CD0082A2CD00C2A3B
:101B500050D00126002085F83C003046BDE8F081D9
:101B60000220FBE7D4E90012E368286800F010FEC9
:101B70002868816921F00C01816128688169A26867
:101B800011430FE0D4E90012E368286800F03EFE3C
:101B90002868816921F44061816128688169A268AF
:101BA00041EA02218161D5E72868D4E9002C277B2E
:101BB000036A016A21F480710162C16923F4007330
:101BC00021F0030141EA0C0121F0F00C39074FF438
:101BD00000774CEA116107EA02221A43C1610262EE
:101BE0002868C16921F00C01C1612868C169A26837
:101BF00011432BE02868D4E90021E768036AD0F894
:101C000020C02CF4805CC0F820C0D0F81CC023F4A5
:101C100000532CF4407C4CEA012121F4704C4FF627
:101C2000FF7101EA07314FF4005741EA0C0107EA5E
:101C300002321A43C16102622868C16921F440611D
:101C4000C1612868C169A26841EA0221C16181E7D6
:101C500010B5040003D094F83D0010B107E0012056
:101C600010BD002084F83C00204600F01EF8022041
:101C700084F83D00211D206800F01EFD012084F83D
:101C8000460084F83E0084F83F0084F8400084F861
:101C9000410084F8420084F8430084F8440084F84A
:101CA000450084F83D00002010BD704730B5044663
:101CB000002551B104290DD0082910D094F8410015
:101CC00094F84520012811D10EE094F83E0094F8D4
:101CD0004220F7E794F83F0094F84320F2E794F8A5
:101CE000400094F84420EDE7012A01D0012030BDE6
:101CF000022059B1042912D0082919D084F84100D2
:101D000084F845000C2938D0012534E084F83E00E1
:101D100084F842002068C26842F0020210E084F8B1
:101D20003F0084F843002068C26842F0040207E0E4
:101D300084F8400084F844002068C26842F0080239
:101D4000C2600122206800F0F3FC0E49206888423E
:101D500008D0B0F1804F05D00B49884202D00B4922
:101D6000884204D1816801F00701062903D0016887
:101D700041F001010160284630BD2068C26842F090
:101D80001002DDE7002C0140000400400008004084
:101D900070B50D0004464FF0000607D0042D0AD0A0
:101DA000082D0DD00C2D10D001262FE02068C16821
:101DB00021F002010DE02068C16821F0040108E073
:101DC0002068C16821F0080103E02068C16821F0A3
:101DD0001001C16000222946206800F0A9FC20689B
:101DE000016A41F21112114207D1016A92101142A7
:101DF00003D1016821F001010160012045B1042DEA
:101E000009D0082D0AD004F8410F2071304670BD6A
:101E100004F83E0FF9E704F83F0FF6E704F8400F27
:101E2000F3E72DE9F04104460068C66805694FF004
:101E30000007A90713D5B10711D5F91E01610120CB
:101E40002077206880698007204602D0FFF76CFE6B
:101E500004E000F07EF8204600F07CF82777680761
:101E600016D5700714D521686FF0040008610220B0
:101E700020772068806910F4407F204602D0FFF769
:101E800053FE04E000F065F8204600F063F8277781
:101E9000280715D5300713D521686FF008000861B1
:101EA000042020772068C0698007204602D0FFF711
:101EB0003BFE04E000F04DF8204600F04BF8277799
:101EC000E80616D5F00614D521686FF010000861F9
:101ED000082020772068C06910F4407F204602D097
:101EE000FFF722FE04E000F034F8204600F032F85C
:101EF0002777E80708D0F00706D021686FF00100C7
:101F00000861204600F028F8280608D5300606D5D6
:101F100021686FF0800008612046FFF7AFFC68067B
:101F200008D5700606D521686FF04000086120468C
:101F300000F031F8A8060AD5B00608D521686FF080
:101F4000200008612046BDE8F041FFF798BCBDE8DD
:101F5000F08170477047000000680349884201D152
:101F6000FFF7BEB87047000000080040024600209E
:101F700041B1042909D008290AD00C2901D11068DF
:101F8000006C70471068406B70471068806B70473A
:101F90001068C06B70477047FEE701684A69D2431A
:101FA00052050FD46FF480624A61002140F8301F5F
:101FB000202242738173026942F0040202610173BC
:101FC00001207047002070472DE9F84F0446006853
:101FD00089460B9D01689846174641F4806101606F
:101FE0002068016841F48071016000954FF0011B89
:101FF0000022594620460A9B00F0E4F84FF4007A8C
:1020000040B120680068C00501D5C4F840A0032095
:10201000BDE8F88F216809F0FE0008612B462849C9
:1020200020460A9A00F016F9F0BB206841698069E1
:1020300000902A4620460A9900F0A2F940B1206C8F
:1020400004283AD12068016841F40071016034E04D
:10205000FEB2B8F1010F09D02168380A08612A469A
:1020600020460A9900F08CF90028E8D12068066122
:102070002A4620460A9900F083F90028DFD120681B
:10208000016841F4807101600095002259462046A4
:102090000A9B00F097F80028B3D1216809F0FF00EF
:1020A00040F00100086100E007E02B4604492046AB
:1020B0000A9A00F0CFF80028AAD00120A8E7000073
:1020C000020001002DE9F843044600680D46DDE9F1
:1020D000089701689846164641F4807101604B46A6
:1020E00000224FF001112046009700F06BF848B134
:1020F00020680068C00502D54FF4007020640320FA
:10210000BDE8F883216805F0FE0008613B464A46B9
:102110001549204600F09EF888B920684169806919
:1021200000903A464946204600F02AF948B1206C12
:10213000042804D12068016841F400710160012085
:10214000DEE7F5B2B8F1010F09D02168300A086165
:102150003A464946204600F013F90028E7D12068A6
:1021600005610020CCE700000200010070B51646B2
:102170000D4604461EE02046FFF70FFF08B1012080
:1021800070BD681C16D0FEF7EDFC801BA84200D87D
:1021900085B920684069C04340070BD5002044F84A
:1021A000300F20216173A073216941F0200121616A
:1021B0002073E4E720684069C0434007DBD4002077
:1021C00070BD00002DE9F047984617460D460446BD
:1021D000C1F30746DDF820902AE000BFB8F1FF3FC9
:1021E00026D0FEF7BFFCA0EB0901414502D8B8F1AB
:1021F000000F1DD12068012E16D0806925EA00004D
:102200000004000C12D00020B84211D1002044F884
:10221000300F20216173A073216941F020012161F9
:1022200020730120BDE8F0874069E7E70120EBE774
:102230002068012E0AD0806925EA00000004000C05
:1022400006D00020B842C9D00020EBE74069F3E790
:102250000120F7E72DE9F047984616460D4604465B
:102260004FF000094FF0200AC1F3074723E0206830
:102270004069C043400515D42068016841F40071ED
:10228000016021686FF480604861C4F8309084F880
:102290003DA084F83E90216C41F00401216484F853
:1022A0003C9021E0701C06D0FEF75CFCA0EB08001F
:1022B000B04203D816B1012F1FD021E02068012FB2
:1022C00015D0806925EA00000004000C18D000BF7A
:1022D00044F8309F84F80DA084F80E90216941F0F5
:1022E0002001216184F80C900120BDE8F08740694D
:1022F00025EA00000004000CEAD12068406901E0F2
:102300002068806925EA00000004000CAFD1ECE7EA
:102310002DE9F041002590460E460446202728E08E
:102320004069C043C0060CD454F8301B6FF0100055
:10233000486144F810596777A577206A20622577AD
:1023400014E0FEF70FFCA0EB0800B04200D886B9FD
:1023500020684069C04340060BD544F8305F67737E
:10236000A573206940F02000206125730120BDE89D
:10237000F08120684169C9434906D1D40020F6E7BD
:1023800070B516460D4604461EE02046FFF705FED2
:1023900008B1012070BD681C16D0FEF7E3FB801B5E
:1023A000A84200D885B920684069C04300060BD513
:1023B000002044F8300F20216173A073216941F09F
:1023C000200121612073E4E720684069C0430006D2
:1023D000DBD4002070BD000070B586B00024184822
:1023E0000094019402940394816941F02001816179
:1023F000816901F020010491816941F0040181614A
:10240000816901F004010491816941F00801816151
:1024100080690C4E00F0080040F60305049000228D
:1024200029463046FEF798FB01200095CDE90104CE
:102430000220039069463046FEF79EFA06B070BD52
:1024400000100240000C0140104810B50E49016018
:102450004FF4827141604FF4004181600021C160FE
:102460004FF400720161C0E905120822C0E907219A
:10247000416281620A21C162FFF778F9002801D028
:1024800072B6FEE710BD00000030014010010020D0
:1024900010B58AB000242248049405940694079449
:1024A000089409940094019402944FF0804103949D
:1024B00001604721C0E901144FF6FF71C0E9031420
:1024C0008461FFF711FA08B172B6FEE74FF480504D
:1024D000049004A91248FFF7B9FA08B172B6FEE7F2
:1024E0000F48FFF7B5FB08B172B6FEE7089408A9DC
:1024F0000B480994FFF7C4F908B172B6FEE7012052
:10250000CDE9004002940422694605480394FFF790
:102510000DFB002801D072B6FEE70AB010BD000026
:1025200068010020FEE7FEE700B589B064221621AD
:1025300003A88DE807000123AA22EE211C48FEF71C
:10254000DBFB032803D020B1012009B000BD02202D
:10255000FBE7BDF80C0041BA16480180BDF80E102B
:1025600049BA4180BDF8101049BA8180BDF81210F7
:1025700049BAC180BDF8141049BA0181BDF81610DE
:1025800049BA4181BDF8181049BA8181BDF81A10C5
:1025900049BAC181BDF81C1049BA0182BDF81E10AC
:1025A00049BA4182BDF8201049BA81820020CCE7A7
:1025B000BC000020B8160020012000F0B3F9FBE7B2
:1025C000012000F0AFF9FBE786B001208DF8110083
:1025D0008DF81000FDF7AEFF0546FEF793F80024D6
:1025E0000DB18DF8114008B18DF810404FF4FA6626
:1025F00002AD2846FDF75AFF08B18DF81140684634
:10260000FEF730F808B18DF81040304600F08AF936
:10261000EFE7000010B5502080F31188BFF34F8F13
:10262000BFF36F8F01F0E2FD18B104494FF0805005
:102630000860002080F3118810BD000004ED00E068
:1026400030B58FB028216846FDF781FE14210AA815
:10265000FDF77DFE01210804CDE90010002402945D
:1026600002250491CDE907504FF4E0100990684627
:10267000FEF7ECFE08B172B6FEE70F20CDE90A05C1
:102680004FF48060CDE90C4002210AA80E94FEF7B9
:10269000F1FD002801D072B6FEE70FB030BD7047E3
:1026A0000148FFF7BEBB0000680100200148FFF7AA
:1026B000B8BB000058080020F0B50268194B1A4C4E
:1026C0001A4D4FF08047984205D0B84203D0A0423F
:1026D00001D0A84203D122F070064A6832439842E2
:1026E00005D0B84203D0A04201D0A84203D122F4C1
:1026F0004074CA6822434C6922F08002224302607F
:102700008A68C2620A688262984201D109690163DB
:10271000012141610169C90703D0016921F001016B
:102720000161F0BD002C01400004004000080040A1
:1027300010B501F01F030121046A99408C43046223
:10274000016A9A401143016210BD10B5846842EAE3
:10275000032224F47F440A432243826010BD82682E
:1027600022F070020A4342F007018160704710B501
:10277000036A046A24F001040462846924F0F0040A
:1027800044EA021423F00A020A438461026210BD83
:1027900070B5056A046A24F00104046284690F4E6E
:1027A000B04208D0B0F1804F05D00D4EB04202D0FB
:1027B0000C4EB04203D124F00304144301E044F072
:1027C00001041A0724F0F00444EA126225F00A0317
:1027D00001F00A0119438261016270BD002C0140C1
:1027E000000400400008004010B5036A046A24F0A9
:1027F00010040462846923F0A00324F4704444EAC2
:10280000023243EA01118261016210BD30B5046AEF
:10281000056A25F010050562856925F4407545EACD
:10282000022222F470454FF6FF7202EA033224F0CE
:10283000A0032A43A02404EA011119438261016222
:1028400030BDFEE70907090E002804DB00F1E02097
:1028500080F80014704700F00F0000F1E02080F8CD
:10286000141D7047EFF30580002800D00120704749
:1028700098B0FEF73DFCFFF7E3FEFFF7ADFDFFF775
:1028800007FE21481F49002401602049C0E90114C6
:102890004FF48041C0E9034144618461C461046232
:1028A000FEF766F908B172B6FEE7FFF7CDFD1594A5
:1028B00015A8169400F042F8154C1C221549E0604A
:1028C0006846FDF712FD0021684600F0C1F8114985
:1028D00020601C221C3107A8FDF707FD002107A876
:1028E00000F0B6F80B4960601C2238310EA8FDF7E5
:1028F000FCFC00210EA800F0ABF8A06000F019F875
:10290000FEE7000000540040BC000020A08601004B
:1029100000000020F449000801460020842900D06E
:10292000C81C704710B500B9012000F041FE00201E
:1029300010BD10B500F0F4FE002010BD41684FF04E
:10294000010009B101F002B800F0F5BF38B54268E6
:102950007AB1012904D0BDE83840084600F0CBBF69
:1029600003201346002200901146012001F01CF8BC
:1029700038BD012904D0BDE83840084600F09EBFAC
:1029800003220021012000F0EEFF040004D0002308
:102990001A46194601F080F8204638BD38B50024A3
:1029A00005460094FFF75EFF90B16946284601F0A6
:1029B00082F9012801D0FF2038BD009888B10A496A
:1029C0004FF080500860BFF34F8FBFF36F8F08E068
:1029D00000231A461946284601F05EF8012800D067
:1029E000FF24204638BD000004ED00E038B50500A6
:1029F0004FF0000000900FD00024481C0ED001B111
:102A00000C46FFF72FFFB8B16A460021284601F0B7
:102A10003DFA012816D104E0802038BD4FF0FF3484
:102A2000EFE7009880B109494FF080500860BFF38C
:102A30004F8FBFF36F8F07E02146284601F074FAED
:102A4000012801D0FF2038BD002038BD04ED00E092
:102A50007FB50D4604464169B0F9080081B1A1690E
:102A600071B1FFF759FFD4E905128DE80700D4E9E9
:102A700000102B46226901F07AFB039004B070BD70
:102A8000FFF74AFF03A9CDE90001208A2B4682B255
:102A9000D4E9001001F03EFB012801D00020EDE751
:102AA0000398EBE72DE9F041184C0F460546E66820
:102AB0002068001D00F048FC38B9206890F82C1000
:102AC00001208840216981432161681C07D137B109
:102AD0002168BDE8F0410E48091D00F085BC206862
:102AE0003544B5424560216805D2A06BBDE8F04190
:102AF000091D00F061BC606B091D00F05DFCA06A5F
:102B0000854200D2A562BDE8F081000020000020CF
:102B1000BC0900202DE9F041054600F071FC2E4C67
:102B2000A068401CA06020682C4F10B1606940B3C1
:102B30002DE02560A068012829D1002606EB86003B
:102B400007EB800000F02AFC761C072EF6D3234802
:102B50008C3000F023FC2148A03000F01FFC1F48FF
:102B6000B43000F01BFC1D48C83000F017FC1B48B7
:102B7000DC3000F013FC19488C3060631430A06323
:102B800005E02068E96AC06A884200D82560606A6A
:102B9000401C6062E96A012022698840104320617C
:102BA00001EB810007EB8000291D00F01DFC00F007
:102BB00047FC606900280CD02068E96AC06A884236
:102BC00007D207494FF080500860BFF34F8FBFF323
:102BD0006F8FBDE8F081000020000020E008002099
:102BE00004ED00E038B500F00BFC104C2068C8B9CB
:102BF0000F4800F0D3FB0E48143000F0CFFB0C4818
:102C0000E060143020610A4B0020C03B009003F1CB
:102C100048020C210A2000F0C7FE206010B105A177
:102C200000F090FCBDE8384000F00ABC5C000020D9
:102C3000900A0020546D72510000000030B4026C04
:102C40000B46002A0BD0C1681144C1608468A142C0
:102C500001D30168C16030BC1846FDF701BB30BC30
:102C600070472DE9F041856B174604460026026C3B
:102C700082B1C7B1E068FDF7F3FAE168206C091A88
:102C8000E1602268914202D2A168081AE060022F36
:102C900016D017E02068A8B9A06801F00DFB064621
:102CA0000020A0600EE06068FDF7DAFA216C606831
:102CB00008446060A168884204D32068606001E035
:102CC00005B16D1E6D1CA5633046BDE8F08110B5E1
:102CD000044690F8510058B101280CD002280FD0BA
:102CE000502080F31188BFF34F8FBFF36F8FFEE743
:102CF000206B00F0B9FB2046BDE8104000F0B4BBEB
:102D000010BD000010484FF44061420706D0C01DBE
:102D10000D4920F00700411AC1F540610B4A00231C
:102D20000144C2E900030839183A21F00701116093
:102D30004B600B600B1AC0E9001393604FF000402A
:102D40005360506170470000B80A002088000020DE
:102D5000144E154CA6F1C8074FF08058DFF84C9080
:102D600012E000BF00F04CFBF068C568281D00F0C1
:102D7000EBFAA068401EA0606068401E606000F032
:102D80005FFB2846FFF7A3FF60680028EAD1386898
:102D90000128F9D9C9F80080BFF34F8FBFF36F8FB7
:102DA000F2E70000A80900202000002004ED00E068
:102DB000002807D00021816001600B460A46C160EF
:102DC00000F06ABE70470346009829B10260C0E96E
:102DD0000F31012100F01CBE0060F8E72DE9F0473B
:102DE0009A46DDE9098481466FF00303206B03EB0B
:102DF00082021044089E20F00707780707D0502071
:102E000080F31188BFF34F8FBFF36F8FFEE700256C
:102E100061B1002023180A5C83F834200A5C12B1E7
:102E2000401C1028F6D384F8435001E084F8345055
:102E3000072E00D30626E662C4E91165201D00F0C6
:102E4000B8FA04F1180000F0B4FA2461C6F10700E2
:102E50006462A061E56484F85050524649463846A1
:102E600000F060FA2060B8F1000F01D0C8F800400F
:102E7000BDE8F08730B5114900E011460A6882428A
:102E8000FBD34B685C18844203D140681844486007
:102E9000084643681C18944209D1084C183C246821
:102EA000A24209D052681A4442600A68126802605D
:102EB000814200D0086030BD0460F9E7880000203E
:102EC00070B5002441600B4D0061914206D8D11AC3
:102ED0008269914206D2011D286907E09A4203D215
:102EE000994201D3012403E0011DE86800F064FA6F
:102EF000204670BD5C00002010B5044600F080FA4A
:102F0000A06B28B15FF0000400F09AFA204610BDD3
:102F10000124F9E730B587B0394D67E004980028FF
:102F200064DB069C606910B1201D00F00DFA03A857
:102F300000F0D8F8024604980A2857D2DFE800F0DB
:102F40000505052D334A05052D3394F8240040F07E
:102F5000010084F824000599A069059B01442046DE
:102F6000FFF7AEFF68B3216A2046884794F8240033
:102F700040073BD5002000900598A1690023421826
:102F80001946204601F0F6FAD8B9502080F311888E
:102F9000BFF34F8FBFF36F8FFEE714F8240F20F0BD
:102FA0000100207022E094F8240040F0010084F831
:102FB00024000598A06128B1811813462046FFF728
:102FC0007FFF13E0502080F31188BFF34F8FBFF3D2
:102FD0006F8FFEE794F82400810703D4204600F0A9
:102FE00043FA03E020F0010084F82400002204A941
:102FF000286800F0AFFE002890D107B030BD000077
:103000005C0000202DE9FC410F46054600F0CCFB9A
:1030100001A800F067F80446019818B101F018FA09
:10302000BDE8FC81254EAFB130690068D0B3002700
:10303000291B3A46306800F099FA01F009FA002895
:10304000EED11F494FF080500860BFF34F8FBFF3A0
:103050006F8FE5E7A542EBD801F0FAF9F068274653
:10306000C068C468201D00F06FF994F8240041077F
:1030700019D5A0692B4641193A462046FFF720FF93
:10308000A8B100200346014600902A46204601F0E0
:1030900071FA60B9502080F31188BFF34F8FBFF3EE
:1030A0006F8FFEE707E020F0010084F82400216A1A
:1030B00020468847B4E70127BAE700005C000020FB
:1030C00004ED00E00648416B096829B1416BC9680D
:1030D000C9684968816270474FF0FF31FAE7000024
:1030E0002000002070B5054601F07AF8064E04462F
:1030F000B068844203D200F009F8012000E000200B
:1031000028602046B46070BD5C000020F8B5194D01
:1031100020E0C068C4680668201D00F015F9216A27
:103120002046884794F82400400713D5A06930440E
:10313000B04206D924616060211DE86800F03CF9C6
:1031400008E000200346014600903246204601F088
:1031500011FA38B1E86801680029DAD12969C5E9AE
:103160000310F8BD502080F31188BFF34F8FBFF3D9
:103170006F8FFEE75C00002008484068401C4FF05D
:10318000500080F3118804D0BFF34F8FBFF36F8FCF
:10319000FEE7BFF34F8FBFF36F8FFEE79000002075
:1031A000074CE068016841B1C0680021D0F8000018
:1031B000FFF728FFFFF7AEFEF3E701210020F7E756
:1031C0005C0000202DE9F041044600F019F994F963
:1031D000455004F1240609E0606A48B1304601F028
:1031E000FDF808B100F012FA6D1E6DB2002DF3DC8F
:1031F0004FF0FF3684F8456000F022F900F000F946
:1032000094F9445004F1100709E0206948B13846A8
:1032100001F0E4F808B100F0F9F96D1E6DB2002D6F
:10322000F3DC84F84460BDE8F04100F009B9000027
:103230002DE9F0410546002700F0B6FA324E30681D
:1032400008B9FFF75FFD706905424ED1C5B3083577
:1032500068070ED005F00700C0F1080005446807B4
:1032600007D0502080F31188BFF34F8FBFF36F8FCB
:10327000FEE72DB37068854237D8234818300146E1
:103280000C6801E020460C466168A94202D2216820
:103290000029F7D131688C4227D007682168016086
:1032A00060680837411B10290FD96019420708D000
:1032B000502080F31188BFF34F8FBFF36F8FFEE76D
:1032C00013E041606560FFF7D5FD61687068401AE2
:1032D0007060B268904200D2B06070690143002013
:1032E000C4E90001F068401CF06001F0B1F8780713
:1032F00007D0502080F31188BFF34F8FBFF36F8F3B
:10330000FEE73846BDE8F0817000002004490868F7
:1033100018B10868826C521C82640868704700000B
:103320002000002010B5031F4FF080741C601B1F8D
:1033300021F001011960191F024B0B60143940384C
:103340000A6010BD79310008D0E9013201699A6044
:10335000D0E901235A604A68824201D182684A60FA
:10336000002202610868401E08600868704700007B
:10337000034B036003F15400086080201060704725
:10338000B0010020044B036003F1540008604FF4C7
:1033900080701060704700000404002000F10801F4
:1033A0004FF0FF32C0E90112C160016100210160EC
:1033B000704700210161704730B50B685A1C02D07C
:1033C00000F1080202E0026904E022465468256820
:1033D0009D42FAD953684B6099608A6051600861D8
:1033E0000168491C016030BD42684A6093688B6087
:1033F00093685960916008610168491C01607047D9
:10340000502080F31188BFF34F8FBFF36F8F0A49AD
:103410004868401C486001280CD10848006810F03A
:10342000FF0F07D0502080F31188BFF34F8FBFF3F9
:103430006F8FFEE7704700009000002004ED00E071
:103440000849486828B1401E486001D180F31188BE
:103450007047502080F31188BFF34F8FBFF36F8FF9
:10346000FEE700009000002070B500282AD0164D1D
:10347000A0F1080460686969084207D1502080F310
:103480001188BFF34F8FBFF36F8FFEE722683AB109
:10349000502080F31188BFF34F8FBFF36F8FFEE78B
:1034A0008843606000F080F960686968084468607B
:1034B0002046FFF7DFFC2869401C2861BDE870400A
:1034C00000F0C6BF70BD0000700000204FF0E0208B
:1034D00000210161816105494FF47A720968B1FBED
:1034E000F2F1491E41610721016170471C00002073
:1034F00010B5FCF791FE114910280ED300F1E02021
:1035000090F8F0030A78904207D2502080F3118897
:10351000BFF34F8FBFF36F8FFEE7094800688968DC
:1035200000F4E060884207D9502080F31188BFF38F
:103530004F8FBFF36F8FFEE710BD0000900000209B
:103540000CED00E010B5084B002200BF53F83240EC
:103550001CB1521C082AF9D310BD43F8321003EBFA
:10356000C201486010BD0000A008002070B51546DB
:103570000E460446FFF744FF94F944100020491C0E
:1035800001D184F8440094F94510491C01D184F814
:103590004500FFF755FFA06B28B92A46314604F1D4
:1035A000240000F051F82046BDE87040FFF70ABE45
:1035B00010B5020014D00F48006B38B1502080F3D2
:1035C0001188BFF34F8FBFF36F8FFEE700F0ECF869
:1035D00000211046FFF766FA00F03AFF002807D1F5
:1035E00005494FF080500860BFF34F8FBFF36F8FD6
:1035F00010BD00002000002004ED00E002490A6A2E
:103600000260C96841607047200000200149012024
:10361000C86170472000002010B50C4650B1094920
:1036200009681831FFF7C8FE2046BDE810400121A7
:10363000FFF738BA502080F31188BFF34F8FBFF3E4
:103640006F8FFEE72000002070B514460D4668B16C
:103650000A4909681831FFF7C7FE0CB14FF0FF3572
:1036600021462846BDE87040FFF71CBA502080F381
:103670001188BFF34F8FBFF36F8FFEE7200000204C
:1036800070B5040047D0A26CA2B1606C884200D330
:103690000146E06A88423ED0012A3CD11E4D2A688C
:1036A00094420FD1502080F31188BFF34F8FBFF3A6
:1036B0006F8FFEE7502080F31188BFF34F8FBFF369
:1036C0006F8FFEE7E162A269002A02DBC1F1070108
:1036D000A161124E00EB8000616906EB800081421F
:1036E00019D1201DFFF730FE012130B994F82C00CC
:1036F0002A6901FA00F082432A61E06A2A6981405E
:103700001143296100EB800006EB8000211DBDE81C
:103710007040FFF769BE70BD20000020E008002067
:1037200030B587B00024039405AA04A903A8049423
:10373000FFF71EFEDDE903010094CDE9011000232F
:1037400015A11748059A00F012FD164D0028E862F1
:103750001FD000F0DFFE012809D0401C19D15020F5
:1037600080F31188BFF34F8FBFF36F8FFEE75020B8
:1037700080F31188BFF34F8FBFF36F8F4FF0FF308F
:10378000A86201206861EC6007B0BDE8304000F03D
:1037900041B807B030BD000049444C45000000006E
:1037A000512D0008200000200248016B491C0163D4
:1037B00070470000200000201448016B11B1012166
:1037C000C16170470021C1610169B1FA81F1C1F1A4
:1037D0001F0101EB81020E4951F822306BB101EB60
:1037E000820101F108034A6852684A609A4201D195
:1037F00052684A60D16801607047502080F3118898
:10380000BFF34F8FBFF36F8FFEE700002000002053
:10381000E00800201CB5264908780190FF200870B8
:1038200008788DF800009DF800009DF8002000F059
:10383000F000904207D0502080F31188BFF34F8FE3
:10384000BFF36F8FFEE79DF800001A4C00F05000A8
:1038500020700720A06005E09DF8002052008DF840
:103860000020401E9DF800201206F5D4A060032819
:1038700007D0502080F31188BFF34F8FBFF36F8FB5
:10388000FEE74FF44070A060019808700A48016894
:1038900041F470010160016841F070410160FFF77F
:1038A00015FE00206060FCF781FC00201CBD0000BC
:1038B00000E400E09000002020ED00E010B50C4690
:1038C00048B184420FD9502080F31188BFF34F8F45
:1038D000BFF36F8FFEE7502080F31188BFF34F8F47
:1038E000BFF36F8FFEE70222002100F03CF80028B2
:1038F00000D0846310BD38B50C4648B184420FD95E
:10390000502080F31188BFF34F8FBFF36F8FFEE716
:10391000502080F31188BFF34F8FBFF36F8FFEE706
:103920000221134600220091114600F03DF80028C4
:1039300000D0846338BD10B502460021012000F09C
:1039400012F80446FFF734FA204610BD38B50B468E
:10395000002200901146012000F026F80446FFF7EF
:1039600027FA204638BDF8B517460E46050013D095
:1039700005FB06F04830FFF75BFC04000AD000208E
:1039800084F8460004F148023B463146284600943C
:10399000FFF719FA2046F8BD502080F31188BFF3D5
:1039A0004F8FBFF36F8FFEE738B5049D18B153B149
:1039B000CAB181B120E0502080F31188BFF34F8F4E
:1039C000BFF36F8FFEE7502080F31188BFF34F8F56
:1039D000BFF36F8FFEE7502080F31188BFF34F8F46
:1039E000BFF36F8FFEE739B1502080F31188BFF32A
:1039F0004F8FBFF36F8FFEE748241C46012384F8E6
:103A000046302B460094FFF7DEF9204638BD000013
:103A100070B50D46040025D0FFF7F2FCD4E90F2065
:103A2000216802FB0011A1600021A163216861608F
:103A30000A46D4E90F01401E00FB0121E160214646
:103A40004FF0FF3001F8440F487004F110008DB1C1
:103A5000FFF7A4FC04F12400FFF7A0FCFFF7F0FC43
:103A6000012070BD502080F31188BFF34F8FBFF34A
:103A70006F8FFEE721690029F0D000F0AFFC00282D
:103A8000ECD004494FF080500860BFF34F8FBFF374
:103A90006F8FE3E704ED00E02DE9FF4782B01D469C
:103AA0008A464FF00008040003D0BAF1000F08D096
:103AB00011E0502080F31188BFF34F8FBFF36F8F59
:103AC000FEE7206C38B1502080F31188BFF34F8F90
:103AD000BFF36F8FFEE7022D0AD1E06B012807D0FC
:103AE000502080F31188BFF34F8FBFF36F8FFEE735
:103AF00000F068FB3F4F4FF000094FF0805648B987
:103B0000049838B1502080F31188BFF34F8FBFF372
:103B10006F8FFEE7FFF774FCA06BE16B884207D361
:103B2000022D05D00498D0B1B8F1000F1AD01EE0D4
:103B30002A4651462046FFF794F8616A19B104F10C
:103B4000240000F04BFC20B13E60BFF34F8FBFF369
:103B50006F8FFFF775FC012006B0BDE8F087FFF717
:103B60006FFC22E06846FFF749FD4FF00108FFF7C0
:103B700067FCFFF719FEFFF743FC94F94400401C73
:103B800001D184F8449094F94500401C01D184F897
:103B90004590FFF755FC04A9684600F081FA30B162
:103BA0002046FFF70FFB00F053FC0020D4E7FFF79F
:103BB00027FCA06BE16B884213D1FFF741FC04F1B5
:103BC00010000499FFF728FD2046FFF7FBFA00F0EC
:103BD0003FFC00289ED13E60BFF34F8FBFF36F8F35
:103BE00098E7FFF72DFC2046FFF7ECFA00F030FCD9
:103BF00090E7000004ED00E02DE9F0471F469046F5
:103C00008946040003D0B9F1000F08D011E050201C
:103C100080F31188BFF34F8FBFF36F8FFEE7206CE7
:103C200038B1502080F31188BFF34F8FBFF36F8FEF
:103C3000FEE7022F0AD1E06B012807D0502080F365
:103C40001188BFF34F8FBFF36F8FFEE7FFF750FC74
:103C50005020EFF3118680F31188BFF34F8FBFF32D
:103C60006F8FA06BE16B884206D3022F04D0002037
:103C700086F31188BDE8F08794F94550A06B3A4669
:103C800049462046FEF7EDFF681C04D06D1C84F801
:103C900045500120ECE7606A0028FAD004F12400C6
:103CA00000F09CFB0028F4D0B8F1000FF1D0012106
:103CB000C8F80010EDE770B50E46040009D0206C7E
:103CC00078B1502080F31188BFF34F8FBFF36F8F0F
:103CD000FEE7502080F31188BFF34F8FBFF36F8F43
:103CE000FEE7206848B9A06838B1502080F31188F9
:103CF000BFF34F8FBFF36F8FFEE7FFF7F9FB502045
:103D0000EFF3118580F31188BFF34F8FBFF36F8FEF
:103D1000A16BE06B884218D994F94500491CA16356
:103D2000411C04D0401C84F8450001200EE0606A6C
:103D30000028FAD004F1240000F050FB0028F4D051
:103D4000002EF2D001203060EFE7002085F31188CB
:103D500070BD00002DE9F747002683B08A460400B5
:103D600003D0BAF1000F08D011E0502080F3118881
:103D7000BFF34F8FBFF36F8FFEE7206C38B1502039
:103D800080F31188BFF34F8FBFF36F8FFEE700F012
:103D900019FADFF8F4804FF000094FF0805748B966
:103DA000059838B1502080F31188BFF34F8FBFF3CF
:103DB0006F8FFEE7FFF724FBA56BC5B15146204688
:103DC000FEF73CFF6D1EA563206950B104F11000A1
:103DD00000F004FB28B1C8F80070BFF34F8FBFF3A9
:103DE0006F8FFFF72DFB012006B0BDE8F087059827
:103DF00008B11EB106E0FFF723FB27E06846FFF796
:103E0000FDFB0126FFF71CFBFFF7CEFCFFF7F8FADE
:103E100094F94400401C01D184F8449094F9450081
:103E2000401C01D184F84590FFF70AFB05A96846BC
:103E300000F036F9002820460AD0FFF7C3F900F059
:103E400007FB2046FFF758F80028B3D00020CBE747
:103E5000FFF752F890B104F124000599FFF7DCFB5D
:103E60002046FFF7AFF900F0F3FA0028A2D1C8F816
:103E70000070BFF34F8FBFF36F8F9BE72046FFF7B4
:103E8000A1F900F0E5FA95E704ED00E02DE9F0472F
:103E900090468946040003D0B9F1000F08D011E024
:103EA000502080F31188BFF34F8FBFF36F8FFEE771
:103EB000206C38B1502080F31188BFF34F8FBFF3CF
:103EC0006F8FFEE7FFF714FB5020EFF3118680F3AE
:103ED0001188BFF34F8FBFF36F8FA76BF7B194F9C2
:103EE000445049462046FEF7A9FE7F1EA763681C82
:103EF00004D06D1C84F84450012010E02069002893
:103F0000FAD004F1100000F069FA0028F4D0B8F1FA
:103F1000000FF1D00121C8F80010EDE7002086F372
:103F20001188BDE8F08700002DE9F343002683B037
:103F30000400354609D0206C78B1502080F31188F8
:103F4000BFF34F8FBFF36F8FFEE7502080F31188D0
:103F5000BFF34F8FBFF36F8FFEE700F033F9DFF849
:103F60003C814FF000094FF0805748B9049838B1B0
:103F7000502080F31188BFF34F8FBFF36F8FFEE7A0
:103F8000FFF73EFAA06BC8B1401EA063206810B9CD
:103F9000FFF7BCF9A060206950B104F1100000F0F7
:103FA0001DFA28B1C8F80070BFF34F8FBFF36F8FB1
:103FB000FFF746FA012005B0BDE8F083049808B188
:103FC00066B10FE03DB1502080F31188BFF34F8FF1
:103FD000BFF36F8FFEE7FFF733FA5DE06846FFF748
:103FE0000DFB0126FFF72CFAFFF7DEFBFFF708FABF
:103FF00094F94400401C01D184F8449094F94500A0
:10400000401C01D184F84590FFF71AFA04A96846CC
:1040100000F046F80028204612D0FFF7D3F800F051
:1040200017FA2046FEF768FF0028A9D09DB3FFF7D6
:10403000E7F9606A50B3206B0068C0F1070126E021
:10404000FEF75AFFE0B1206838B9FFF7D9F9A06848
:1040500000F07EF90546FFF7F3F904F12400049916
:10406000FFF7DAFA2046FFF7ADF800F0F1F9002883
:1040700086D1C8F80070BFF34F8FBFF36F8F7FE713
:104080002046FFF79FF800F0E3F979E70021A068E8
:10409000FFF7F6FA9FE7FFE700208CE704ED00E06A
:1040A0002DE9F0410C46050011D0C4B1FFF7A8F985
:1040B000174BDA686E682068911B471C17D02F6871
:1040C0001B6A9F4219D0964217D8012410E0502055
:1040D00080F31188BFF34F8FBFF36F8FFEE750203F
:1040E00080F31188BFF34F8FBFF36F8FFEE700247B
:1040F000FFF7A6F92046BDE8F081884205D9401AAD
:1041000020602846FFF77AFAF1E700202060DCE71C
:10411000200000202DE9FF5F8346DDE90E879946E8
:1041200016468A469000FFF783F805001CD05420FD
:10413000FFF77EF8040014D00020256384F85100B6
:10414000CDE90240CDE900874B46324651465846FC
:10415000FEF744FE2046FEF7DDFC012004B0BDE87A
:10416000F09F2846FFF780F94FF0FF30F6E7F0B5F3
:1041700085B0DDE90B640A9DA6B1DCB15427009738
:104180002663022684F85160002604AFCDE902467A
:10419000CDE90057FEF722FE2046FEF7BBFC04984F
:1041A00005B0F0BD502080F31188BFF34F8FBFF3EF
:1041B0006F8FFEE7502080F31188BFF34F8FBFF35E
:1041C0006F8FFEE70548416919B1006B18B10020F7
:1041D0007047012070470220704700002000002037
:1041E0000148C06870470000200000202DE9F04120
:1041F0002F4C0026206B28B1A069401CA0613046DE
:10420000BDE8F081E5686D1CE56013D1606B006866
:1042100038B1502080F31188BFF34F8FBFF36F8FF9
:10422000FEE7606BA16B6163A063206A401C2062A3
:10423000FEF748FFA06ADFF87C80854209D3606BF7
:104240000068A0B1606BC068C7687868854211D209
:10425000A0622068C06A00EB800158F821000128A4
:1042600000D90126E0690028C9D00126C7E74FF030
:10427000FF30EDE7381DFFF767F8B86A18B107F1AE
:104280001800FFF761F8F96A01202269884010439D
:10429000206101EB810108EB8100391DFFF7A4F8D3
:1042A000F86A2168C96A8842C9D30126C7E70000B5
:1042B00020000020E008002070B504004FF000014D
:1042C00040D0214D2868844207D0502080F31188C7
:1042D000BFF34F8FBFF36F8FFEE7A06C38B1401E66
:1042E000A064636CE26A9A422CD040B12AE050206C
:1042F00080F31188BFF34F8FBFF36F8FFEE7201D50
:10430000FFF722F8114A012150B9E06A00EB80035F
:1043100052F8233023B92B6901FA00F083432B6153
:10432000606CE062C0F10700A061E06A2B69814027
:104330001943296100EB800002EB8000211DFFF78B
:1043400053F80121084670BD20000020E00800203D
:1043500070B504004FF0000034D01E4DE16A2A68A9
:10436000D26A91422FD2A069002804DB2868C06A73
:10437000C0F10700A061184E01EB8101606906EBF6
:10438000810188421AD1201DFEF7DEFF012130B9DC
:1043900094F82C002A6901FA00F082432A61286807
:1043A000C06AE0622A6981401143296100EB800004
:1043B00006EB8000211DFFF717F802E02868C06AAD
:1043C000E062012070BD616C2A68D26A9142F8D324
:1043D00070BD000020000020E00800202DE9F04121
:1043E000C068C468ACB104F118000746FEF7ACFF22
:1043F000154D286B0126A0B139461448FEF7F4FF8D
:10440000E06A2968C96A88421CD90120EE61BDE8CA
:10441000F081502080F31188BFF34F8FBFF36F8F6F
:10442000FEE7201DFEF790FFE16A2A6906FA01F017
:104430001043286101EB81000449B43901EB80008D
:10444000211DDBE70020E2E7200000209409002086
:104450002DE9F0472C4D00242746286B38B1FEF794
:10446000CFFF286B401E2863286B40B146E05020E8
:1044700080F31188BFF34F8FBFF36F8FFEE7A968FA
:10448000224E0120D1B3A6F1B40980463068E8B1CC
:10449000F068C46804F11800FEF756FF201DFEF70F
:1044A00053FFE06A2A6908FA00F11143296100EB21
:1044B000800109EB8100211DFEF796FFE06A296863
:1044C000C96A8842E2D3C5F81C80DFE70CB1FEF769
:1044D000F9FDAC6944B14646FFF788FE00B1EE61D4
:1044E000641EF9D10020A861E86938B108490127A4
:1044F00038070860BFF34F8FBFF36F8FFEF7A0FF41
:104500003846BDE8F0870000200000209409002014
:1045100004ED00E010B586B0FEF764FB114C206896
:10452000B8B100200390049005AA04A903A8FEF7DF
:1045300029FFDDE9032102208DE8070000230AA1FD
:104540000B48059AFFF713FE606010B106B001201A
:1045500010BD502080F31188BFF34F8FBFF36F8FD2
:10456000FEE700005C000020546D7220537663006B
:10457000A1310008FEB51E4613460200089D4FF00B
:10458000000014D0124C2768002F0FD0CDE9001383
:104590000292062915DAFFF715FE02284FF00003F4
:1045A0000DD0002269462068FFF776FAFEBD502044
:1045B00080F31188BFF34F8FBFF36F8FFEE72A465A
:1045C000F0E70023324669463846FFF715FBFEBD8B
:1045D0005C00002090EA010F48BF81F0004100F12B
:1045E0009A81421A3CBF801A89184FEAD0524FF084
:1045F0007F4C1CEA410FA2EBD15318BF9CEA026F1B
:1046000000F03B804FF0004C4CEA00204CEA0121C6
:1046100021FA03FC10EB0C0C1ED202F1FF325FEA10
:104620001C2040EBC25038BF70471CF07F0F4FEA90
:10463000400C18BFBCF17F4F38BF7047C3F1200357
:10464000994008BF20F00100BCF17F4F38BF704790
:10465000A0F1C04000F053B94FEA3C00000A40EB23
:10466000C25028BF1CF0FF0F4FEA400CE6D018BF25
:10467000BCF17F4F38BF7047EAE79CEA026F05D074
:1046800010EA5C0F08BF00F00040704710B500F062
:10469000F0F800BF64FBBE3E4FF47F0C1CEAD01262
:1046A0001EBF1CEAD11392EA0C0F93EA0C0F00F024
:1046B000858090EA010F48BF42F4807240F4000CFC
:1046C00041F400002CF07F4120F07F4000B5814292
:1046D000A2EB03020FF2081CACEB504EC0F100003D
:1046E0009EF800E04FEA4E0E00FB0EFC38BF49007A
:1046F0004FEA2C1C02F5FA020CFB0EF34FEACE1E19
:104700004FEA112C4FEAC1210EEB635E42EB2242CD
:104710000EFB0CFC4FEA1C5300FB03114FEA112C5B
:104720004FEA01310EFB0CFC4FEADC4C00FB0C1194
:10473000C14228BF09184CEB03335DF804EB10EBC2
:10474000410143EBC250B2F57C0F38BF704729D509
:1047500012F0F00F1CBF00F1C04000F000407047A5
:10476000008182838485868788898B8C8D8E8F914A
:104770009293959697999A9C9D9FA0A2A3A5A7A86E
:10478000AAACAEB0B2B3B5B7B9BCBEC0C2C5C7C99A
:10479000CCCED1D4D7D9DCDFE2E6E9ECF0F3F7FAFE
:1047A000FE0000004FEA400C0CF1807CBCF17E4F13
:1047B00028BF7047B0F1C04000F0A1B890EA010FE7
:1047C0000CEAD11348BF42F48072624538BF63459A
:1047D00007D213F47F0F16D080EA010000F00040EA
:1047E000704710B500F045F8097EFC3E00F005B8B2
:1047F00080EA010000F00040704780EA010000F00C
:10480000004000F07CB812F47F0F04BF02487047EC
:1048100080EA010000F073B80000C07F10F0004192
:1048200048BF4042B0FA80F310FA03F2C3F19D038F
:104830000BD051EAC35101EB1220530638BF704729
:1048400000F1010008BF20F001007047B0FA80F3CA
:1048500010FA03F2C3F19D030AD0D90501EB12202F
:10486000530638BF704700F1010008BF20F0010077
:1048700070470EF1020E2EF0030E5EF8044B244238
:1048800004D44FEA4102B2F17F4F11D84FEA4003FE
:10489000B3F17F4F0CD80ED14FEAD07CB2F17F4FED
:1048A0000CEB4C0C0CF1020C08BF4CEBD17C04E07F
:1048B0004FF0080C01E04FEAD17C0CEB4C0324FADA
:1048C00003F404F00704B4F1040C06D20EEB840CDC
:1048D000BDE810404CF0010C6047DFE80CF0070821
:1048E00002024FF00040A0F5800010BD08464200D3
:1048F00018BFD2F1807288BF00F0004010BDFF21C8
:1049000041EAD050C005704790EA010F48BF81F0DE
:1049100000413FF566AE421A04D882F00042A0EB97
:10492000020011444FEAD0524FF07F4C1CEA410F75
:10493000A2EBD15318BF9CEA026F4AD04FF0004C53
:104940004CEA00204CEA012121FA03FCB0EB0C0CEC
:104950000FD412F0FE0F36D05FEA4C001DD50012C6
:1049600040EBC25038BF70471CF03F0F18BF704774
:104970000BE0A2F101025FEA1C2040EBC25038BFFD
:1049800070471CF07F0F18BF7047C3F12003994098
:1049900014BF401E20F00100704780084FEA122328
:1049A00008BF7047B0FA80FCA2EB0C02CCF1280CD7
:1049B00060FA0CF093EA122F04BF00EBC25070476C
:1049C0004FEAC3707047130A5FEADC1008BF7047F4
:1049D000F6E79CEA026F04D010EA5C0F08BF0020E3
:1049E000704710B5FFF745FF40DFF63E81F000400D
:1049F00070470000804A0008C92500080000000038
:104A000000000000000100000000000000000000A5
:104A1000744A0008C12500080000000000000000E2
:104A20008000000000000000000000008C4A000828
:104A3000B9250008FFFF0000000000008000000012
:104A40000000000000000000010202030405060748
:104A500008090A0B0C0D0E0F1010000000000000DA
:104A6000000001020304060708090000000001021B
:104A7000030400004865616C74685461736B000046
:104A800053656E736F725461736B00004469737089
:104A90006C61795461736B00B84A00080000002013
:104AA000BC00000028010008744B0008BC00002076
:104AB000741C000044010008000000000000000019
:104AC00000000000000000000100000010000000D5
:104AD0000000000000127A0000000000000000004A
:104AE00000000000000000000000000000000000C6
:104AF00000000000000000000000000000000000B6
:104B000000000000000000000000000000000000A5
:104B10000000000000000000000000000000000095
:104B20000000000000000000000000000000000085
:104B30000000000000000000000000000000000075
:104B4000000000000000000000000000AAAAAAAABD
:104B50000000000000000000000000000000000055
:104B60000000000000000000000000000000000045
:044B70000000000041
:04000005080000ED02
:00000001FF
